:100000000F308A00242F0000FF00030E8301A1009F
:100010000A08A0008A010408A2007708A300780853
:10002000A4007908A5007A08A600831383128B1D0B
:100030001B280B1836280B1E1F288B1839288C30CC
:100040008400001C25280C183C2822088400230862
:10005000F7002408F8002508F9002608FA0020080F
:100060008A00210E8300FF0E7F0E09008A110A12FA
:100070002F2D8A110A12F22A8A110A12B62C0A109E
:100080008A100A11820731342D34443461346434C7
:100090006F3473342034613467346F3472346134B4
:1000A000203400340A108A100A11820732342D34A9
:1000B0004434613464346F34203475346C347434B3
:1000C00069346D346134203463346F346C34653496
:1000D0007434613400340A108A100A1182073334F0
:1000E0002D3443346F346E3466342E34203464340B
:1000F0006134203468346F347234613420342034F5
:10010000203400340A108A100A11820734342D3446
:1001100043346F346E3466342E34203474342E34C9
:10012000203464346534203463346F346C34653483
:100130007434613400340A108A100A11820754346E
:100140004D3450343A3400340A108A100A118207B0
:1001500020346734433400340A108A100A118207AD
:1001600055344D3444343A3400340A108A100A119C
:1001700082075034523453343A3400340A108A100F
:100180000A11820720344B345034613400340A1091
:100190008A100A11820756344E3454343A340034EB
:1001A0000A108A100A11820720346D342F347334F8
:1001B00000340A108A100A11820744346934673403
:1001C00069347434653420346134203468346F34D5
:1001D0007234613420346E346F3400340A108A1063
:1001E0000A11820766346F3472346D3461347434AA
:1001F0006F342034683468346D346D3400340A143C
:100200008A100A1182073D343E3400340A148A10E1
:100210000A1182075034723465347334733469348C
:100220006F346E3465343A342034203431343D3404
:1002300031346D3469346E3400340A148A100A1172
:10024000820732343D34313430346D3469346E34A5
:1002500020346F347534203433343D3431346834D1
:100260006F347234613400340A148A100A11820720
:10027000543465346D3470346F34203461346C34EC
:10028000743465347234613464346F34213420340E
:1002900000340A148A100A1182074434693467341E
:1002A00069347434653420346134203473346534F3
:1002B0006E346834613400340A148A100A118207DB
:1002C0002034523445345334453454342034433488
:1002D0004F344D3450344C34453454344F3421343D
:1002E00000340A148A100A1182072034463441343B
:1002F0004C34483441342134003489140530831699
:10030000B100B1308400831300080319952901302E
:10031000F800F701F70B8A29F80B89294A30F70012
:10032000F70B90299329800B8729831289100800E5
:100330000910013088007D21880E7D2109140800F4
:100340008316B0018312091083162D0883128800CA
:100350007D21880E7D210914831630082E07840024
:1003600083132F18831780080319C52930082E0717
:10037000840083132F1883170008831288007D21BF
:10038000880E7D218316B00AAD2983120800B03093
:100390008400831300080319DB290130F800F701FA
:1003A000F70BD029F80BCF294A30F700F70BD629E5
:1003B000D929800BCD29080078308316AF002F088B
:1003C000783C031D7D2A831287110714861CEF29B0
:1003D00007308316AF00C830B0008312C721061D56
:1003E000F82904308316AF00C830B0008312C7214B
:1003F000861D012A01308316AF00C830B000831279
:10040000C721061E0A2A13308316AF00C830B00079
:100410008312C72187140710861C152A08308316FB
:10042000AF00C830B0008312C721061D1E2A053058
:100430008316AF00C830B0008312C721861D272A5B
:1004400002308316AF00C830B0008312C721061EE9
:100450002F2A8316AF01C830B0008312C7210715B9
:100460008710861C3A2A09308316AF00C830B000C6
:100470008312C721061D432A06308316AF00C830F9
:10048000B0008312C721861D4C2A03308316AF00AB
:10049000C830B0008312C721061E552A0D308316BE
:1004A000AF00C830B0008312C72187150711861C22
:1004B000602ACD308316AF00C830B0008312C72148
:1004C000061D692AFA308316AF00C830B0008312C7
:1004D000C721861D722AFD308316AF00C830B000D8
:1004E0008312C721061E7B2AFB308316AF00C8305B
:1004F000B0008312C7218316DF292F08F80083126A
:1005000008008316AD01AE014730840083132D0827
:1005100084072E0883123F20800000380319952A93
:100520008316AE0AAD0A842A831280308316AD008A
:10053000AF014730AE008312A0218316AD01AE019A
:100540004730840083132D0884072E08831252201D
:10055000800000380319B12A8316AE0AAD0AA02A1A
:100560008312C0308316AD00AF014730AE00831256
:10057000A0218316AD01AE014730840083132D08FE
:1005800084072E0883126B20800000380319CD2ABF
:100590008316AE0AAD0ABC2A831294308316AD00CE
:1005A000AF014730AE008312A0218316AD01AE012A
:1005B0004730840083132D0884072E08831282207D
:1005C000800000380319E92A8316AE0AAD0AD82A3A
:1005D0008312D4308316AD00AF014730AE008312D2
:1005E000A02108008B138B1098218316AD01AE015A
:1005F0004730840083132D0884072E088312492175
:10060000800000380319092B8316AE0AAD0AF82AB8
:10061000831280308316AD00AF014730AE008312E5
:10062000A0218316AD01AE014730840083132D084D
:1006300084072E088312FF20800000380319252B21
:100640008316AE0AAD0A142B8312C0308316AD0098
:10065000AF014730AE008312A021C601B501B4013D
:10066000B508031D152C3408053C031C152C5C3003
:100670003407F8003508FA000318FA0A78088316D8
:10068000AD007A08AE008312DC2130307807831683
:10069000AF002D08840083132E1883172F088000C5
:1006A0005C308312340784008313351883170008E5
:1006B00088007D21880E7D21B40A0319B50A34080B
:1006C000053C031D142CB508031D142CB501B40101
:1006D000B508031D8C2B3408043C031C8C2B6130A3
:1006E0003407840083133518831700088316AD0080
:1006F0005C30831234078400831335188317000895
:1007000083162D02031D872B8312C60A83168312BC
:10071000B40A0319B50A682B4608053C031DE82BEB
:10072000831603178C130C1583128D010313B50167
:10073000B4013508003C031CAF2BFF3003178C00BD
:10074000553083168D00AA308D008C148C18A62B82
:1007500083128D0A0313B40A0319B50A992BB50144
:100760000630B400831603170C118312031398216B
:100770008316AD01AE014730840083132D08840732
:100780002E0883125C21800000380319CC2B8316BD
:10079000AE0AAD0ABB2B8312C0308316AD00AF0189
:1007A0004730AE008312A021B701B6010430831692
:1007B000AD00FA30B0008312C7218316AD0BD92BE0
:1007C0008312982181228B17B5010730B400142CB5
:1007D00098218316AD01AE014730840083132D08A4
:1007E00084072E0883127121800000380319FD2B25
:1007F0008316AE0AAD0AEC2B8312C0308316AD000F
:10080000AF014730AE008312A02104308316AD0043
:10081000FA30B0008312C7218316AD0B082C831267
:100820008B17B5010730B400302B8B108A110A12D8
:1008300025288B134508303C0319C5019F121F1250
:100840009F111F11B501B401B508031D652C3408B3
:10085000033C031C652C9F149F182C2C8316031734
:100860008C130C1583120313450803178D00031313
:100870001E0803178C00553083168D00AA308D009A
:100880008C148C18412C83120313C50A45080317D6
:100890008D00831603131E08831203178C00553036
:1008A00083168D00AA308D008C148C18552C831261
:1008B0000313C50A831603170C11043083120313A4
:1008C0009F07B40A0319B50A242C831603178C1347
:1008D0000C1583120313450803178D0003133D08FD
:1008E00003178C00553083168D00AA308D008C14B0
:1008F0008C18782C83120313C50A450803178D0042
:1009000003133E0803178C00553083168D00AA3060
:100910008D008C148C188A2C83120313C50A450889
:1009200003178D0003133F0803178C0055308316FF
:100930008D00AA308D008C148C189C2C831203130C
:10094000C50A450803178D000313400803178C00E0
:10095000553083168D00AA308D008C148C18AE2C67
:1009600083120313C50AC6018B17080010100C1060
:100970000B308F00DC308E00101409108F3088008F
:100980007D21880E7D21091430303D0788007D21AE
:10099000880E7D2130303E0788007D21880E7D2124
:1009A0003A3088007D21880E7D2130303F07880055
:1009B0007D21880E7D213030400788007D21880E02
:1009C0007D21320838028316AD0083123908831660
:1009D000AE0083123308031C330FEF2CF22C831666
:1009E000AE0283123A0883162D02031D042D8312D2
:1009F0003B0883162E02031D042D83123908BB0009
:100A00003808BA00192483168312BC0A3C0B2B2D1C
:100A1000B80A0319B90ABC01C00A40080A3C031D00
:100A20001F2DC001BF0A3F08063C031D1F2DBF013B
:100A3000BE0A3E080A3C031D1F2DBE01BD0A3D082B
:100A4000023C031D2B2D3E08043C031D2B2DBD0134
:100A5000BE01BF01C0010C108A110A122528C6016F
:100A6000C1080319482D861C382DB7010730B60080
:100A7000061D3D2DB7010430B600861D422DB7017D
:100A80000130B600061E472DB7011330B600942D75
:100A9000C20803195F2D861C502DB7010830B6001F
:100AA000061D552DB7010530B600861D5A2DB7011C
:100AB0000230B600061E5E2DB701B601942DC308A4
:100AC0000319772D861C672DB7010930B600061D66
:100AD0006C2DB7010630B600861D712DB7010330AD
:100AE000B600061E762DB7010D30B600942DC40851
:100AF0000319922D861C7F2DB701CD30B600061D3F
:100B0000852DFF30B700FA30B600861D8B2DFF30E3
:100B1000B700FD30B600061E912DFF30B700FB3048
:100B2000B600942D0130C6000B100B108A110A126A
:100B300025288910091002308800A7018B1BA717F0
:100B40008B137D21A71B8B17880EA7018B1BA71763
:100B50008B137D21A71B8B1728308800A7018B1BC7
:100B6000A7178B137D21A71B8B17880EA7018B1B43
:100B7000A7178B137D21A71B8B1728308800A7018F
:100B80008B1BA7178B137D21A71B8B17880EA70123
:100B90008B1BA7178B137D21A71B8B170630880093
:100BA000A7018B1BA7178B137D21A71B8B17880E03
:100BB000A7018B1BA7178B137D21A71B8B170C304D
:100BC0008800A7018B1BA7178B137D21A71B8B17F1
:100BD000880EA7018B1BA7178B137D21A71B8B17D3
:100BE00001308800A7018B1BA7178B137D21A71B42
:100BF0008B17880EA7018B1BA7178B137D21A71BB3
:100C00008B1709148A150A12612F0F3083160317E8
:100C10008800831203139F171F1783169F179F12B5
:100C20001F1283121F148A150A12642F901090113C
:100C3000901610160B308F00DC308E0010148A15C1
:100C40000A12772F0130C600C6080319682EC401A6
:100C50000130C10087110714A7018B1BA7178B1345
:100C6000C8308316B0008312C721A71B8B17C101A0
:100C70000130C20087140710A7018B1BA7178B1325
:100C8000C8308316B0008312C721A71B8B17C2017F
:100C90000130C30007158710A7018B1BA7178B1303
:100CA000C8308316B0008312C721A71B8B17C3015E
:100CB0000130C40087150711A7018B1BA7178B13E1
:100CC000C8308316B0008312C721A71B8B17242EB0
:100CD0008A150A128A2F8E30F7006F08F8006E0806
:100CE000F900FA01F808031D7F2E7908F800F901D0
:100CF0000830F702F808031D7F2EF701872E031036
:100D0000F81B862EF90DF80DF7037F2EF813080057
:100D100072080319072F8316A0007B08031D922E6B
:100D20008312072FA0070318A02E7F30A0020318FC
:100D30009B2E8312072F031D9F2E8312072FA62E93
:100D40008130A007031CA62E8312072F2008F7006E
:100D5000F801F901FA017308A400A4177408A300AC
:100D60007508A2001830A000A101221CCF2E7E0819
:100D7000FA07031CC12EF90A031DC12EF80A031934
:100D8000A1177D08F907031CC82EF80A0319A1173B
:100D90007C08F400F4177408F8070318A117A10DD4
:100DA000F80CF90CFA0CA40CA30CA20C0310A00B69
:100DB000B42E0130F707031CDF2E8312072FF81B18
:100DC000E92EA40DFA0DF90DF80DF70BE92E83129B
:100DD000072FA41FFC2EFA0A031DFC2EF90A031D7F
:100DE000FC2EF80A031DFC2EF80CF90CFA0CF70A7D
:100DF000031DFC2E8312072F7308A1007C08A10697
:100E0000A11F042FF8170C2FF8130C2F8312F701D2
:100E1000F801F901FA018316831208007208031918
:100E2000E02F8316A4007B08031D182F8312E02FE8
:100E3000A402031C222F7F30A407031C212F83123E
:100E4000E02F2C2F8130A4020318282F8312E02FCB
:100E5000031D2C2F8312E02F2408F700F801F9015D
:100E6000FA01A3017308A200A2177408A100750873
:100E7000A0001930A4007E08A00203184F2F0130F3
:100E8000A10203184F2FA20203184F2FA302031829
:100E90004F2FA30AA20AA10A7E08A007812F7D086E
:100EA000A10203186A2F0130A20203186A2FA302BD
:100EB00003186A2FA30AA20A7D08A1077E08A007CB
:100EC000031C812FA10A031D812FA20A031D812F5C
:100ED000A30A812F7C088038A2020318802F0130DA
:100EE000A3020318802FA30A7C088038A2077D087C
:100EF000A107031C5E2FA20A031D5E2FA30A5E2F0B
:100F00007A14A40B842F8F2F0310A00DA10DA20D16
:100F1000A30D0310FA0DF90DF80DA50D3B2F251C9F
:100F2000972F0310F80CF90CFA0CA50C9B2FF70B5C
:100F30009B2F8312E02FA51BC42F0310A00DA10D22
:100F4000A20DA30D7E08A0020318B02F0130A1024C
:100F50000318B02FA2020318B02FA302031CD52F31
:100F60007D08A1020318BB2F0130A2020318BB2F7A
:100F7000A302031CD52F7C088038A2020318C42FBB
:100F80000130A302031CD52FFA0A031DD52FF90A3D
:100F9000031DD52FF80A031DD52FF70A031DD22FE5
:100FA0008312E02FF80CF90CFA0C7308A4007C08EB
:100FB000A406A41FDD2FF817E52FF813E52F8312E1
:0E0FC000F701F801F901FA0183168312080007
:101000006F08FB007308FB06FB1F0B28031103107E
:10101000EF1B03143E286F08FB007208FC006E08EB
:10102000FC0203191928FB1F3E280308013A83001C
:101030003E287308FC006F08FC0203192528FB1FDB
:101040003E280308013A83003E287408FC0070081B
:10105000FC0203193128FB1F3E280308013A8300D4
:101060003E287508FC007108FC0203193D28FB1F8F
:101070003E280308013A83003E2803100800803010
:101080008318F3068316A201A30183126F08831647
:10109000A1007308A10683126E0803193F29831665
:1010A000A000F700720803194929A0020319DF28DC
:1010B000031C99287308A600A6177408A5007508D4
:1010C000A400A3010310A60CA50CA40CA30CA00B58
:1010D0006128A11F6E2822145F29221020102216D9
:1010E00071308400831374292212A11B8128201CD3
:1010F0008C28A60CA50CA40CA30CF70A03195A29DA
:101100008C28A61B8F280310A30DA40DA50DA60DDA
:10111000F70303195A298128221701292213831260
:101120006F088316A100A11F9728A6175329A6139D
:1011300053297208A000F70083126E088316A002DC
:1011400083126F088316A600A6177008A500710801
:10115000A400A3010310A60CA50CA40CA30CA00BC7
:10116000A928A11FB628A2145F29A2102010A21638
:101170007530840083137429A212A11BC928201C76
:10118000D428A60CA50CA40CA30CF70A03195A2901
:10119000D428A61BD7280310A30DA40DA50DA60DBA
:1011A000F70303195A29C928A2170129A2137308A2
:1011B000A100A11FDD28A6175329A61353297308E0
:1011C000A600A6177408A5007508A400A11FEC28A6
:1011D000A61322155F292211A3012010713084006B
:1011E00083137429A11B172983126F088316A1008A
:1011F000201C0129A60CA50CA40CA30CF70A0319AA
:101200005A29A31F1229A40A031D1229A50A031D86
:101210001229A60A031D1229A60CA50CA40CF70A74
:1012200003195A29221B8E28A21BD6283829803060
:10123000A606A61F1F295F297308A1002E29831265
:101240006F088316A100A608031D2E29A508031DFB
:101250002E29A408031D2E29F7015329A61B38297E
:101260000310A30DA40DA50DA60DF70B2E295A29C9
:10127000A11F3C29A6175329A613532983127208CC
:10128000F70073088316A6007408A5007508A4006B
:10129000532983126E08F7006F088316A6007008A2
:1012A000A5007108A4002608F8002508F900240804
:1012B000FA009229F701F801F901FA019229A30134
:1012C000A409A509A609A309A30A031D6D29A40A57
:1012D000031D6D29A50A0319A60A22186D28A21854
:1012E000B5282219EB281C290008A407031C7E2915
:1012F000A50A031D7E29A60A0319201484030008E9
:10130000A507031C8629A60A0319201484030008D4
:10131000801F803AA60703182014221A7428A21AE4
:10132000BC28F228831208008E30F7006E08F702FE
:101330006F08F9007008F800F917F7080319AB29CE
:101340000310F908031DA729F8080319AB29F90CA4
:10135000F80CF70BA029EF1FB229F809F909F80AD0
:101360000319F90A0800F801F901F701FA017308F5
:10137000031DBD2972080319D7291030F40003108A
:10138000F00DF10DF70DFA0D73087A02031DCA294D
:1013900072087702031CD3297208F702031CFA03B0
:1013A0007308FA020314F80DF90DF40BBF290800B5
:1013B000EE01EF014730840083136E0884076F0845
:1013C0008A119B208A15800000380319EA29EF0A48
:1013D000EE0ADA29A7018B1BA7178B13803083161F
:1013E000AD00AF014730AE008A118312A0218A15EB
:1013F000A71B8B17091084308800A7018B1BA71728
:101400008B138A117D218A15A71B8B17880EA701C4
:101410008B1BA7178B138A117D218A15A71B8B178E
:10142000091430088800A7018B1BA7178B138A119A
:101430007D218A15A71B8B17880EA7018B1BA71769
:101440008B138A117D218A15A71B8B1730302E072D
:101450008800A7018B1BA7178B138A117D218A1582
:10146000A71B8B17880EA7018B1BA7178B138A113D
:101470007D218A15A71B8B1730302C078800A70108
:101480008B1BA7178B138A117D218A15A71B8B171E
:10149000880EA7018B1BA7178B138A117D218A1534
:1014A000A71B8B172C308800A7018B1BA7178B134A
:1014B0008A117D218A15A71B8B17880EA7018B1B0C
:1014C000A7178B138A117D218A15A71B8B17303024
:1014D0002A078800A7018B1BA7178B138A117D2170
:1014E0008A15A71B8B17880EA7018B1BA7178B13B9
:1014F0008A117D218A15A71B8B1730302807880099
:10150000A7018B1BA7178B138A117D218A15A71B97
:101510008B17880EA7018B1BA7178B138A117D21B0
:101520008A15A71B8B17EE01EF0147308400831348
:101530006E0884076F088A11A4208A15800000387D
:101540000319A52AEF0AEE0A952AA7018B1BA717F4
:101550008B138A308316AD00AF014730AE008A117D
:101560008312A0218A15A71B8B170800EE01EF013B
:101570004730840083136E0884076F088A11AC20FB
:101580008A15800000380319C82AEF0AEE0AB82A23
:10159000A7018B1BA7178B13C0308316AD00AF01BB
:1015A0004730AE008A118312A0218A15A71B8B1722
:1015B0000910C5308800A7018B1BA7178B138A1150
:1015C0007D218A15A71B8B17880EA7018B1BA717D8
:1015D0008B138A117D218A15A71B8B1709143030B4
:1015E0002E078800A7018B1BA7178B138A117D215B
:1015F0008A15A71B8B17880EA7018B1BA7178B13A8
:101600008A117D218A15A71B8B1730302C07880083
:10161000A7018B1BA7178B138A117D218A15A71B86
:101620008B17880EA7018B1BA7178B138A117D219F
:101630008A15A71B8B1730302A078800A7018B1B40
:10164000A7178B138A117D218A15A71B8B17880E6C
:10165000A7018B1BA7178B138A117D218A15A71B46
:101660008B172C308800A7018B1BA7178B138A11AF
:101670007D218A15A71B8B17880EA7018B1BA71727
:101680008B138A117D218A15A71B8B1730302807F1
:101690008800A7018B1BA7178B138A117D218A1540
:1016A000A71B8B17880EA7018B1BA7178B138A11FB
:1016B0007D218A15A71B8B1720308800A7018B1B63
:1016C000A7178B138A117D218A15A71B8B17880EEC
:1016D000A7018B1BA7178B138A117D218A15A71BC6
:1016E0008B1725308800A7018B1BA7178B138A1136
:1016F0007D218A15A71B8B17880EA7018B1BA717A7
:101700008B138A117D218A15A71B8B170800EE0108
:10171000EF014730840083136E0884076F088A1135
:10172000B5208A15800000380319992BEF0AEE0ABC
:10173000892BA7018B1BA7178B1394308316AD0041
:10174000AF014730AE008A118312A0218A15A71B72
:101750008B17091099308800A7018B1BA7178B13D3
:101760008A117D218A15A71B8B17880EA7018B1B59
:10177000A7178B138A117D218A15A71B8B170914B4
:1017800030302E078800A7018B1BA7178B138A11F7
:101790007D218A15A71B8B17880EA7018B1BA71706
:1017A0008B138A117D218A15A71B8B1730302C07CC
:1017B0008800A7018B1BA7178B138A117D218A151F
:1017C000A71B8B17880EA7018B1BA7178B138A11DA
:1017D0007D218A15A71B8B1730302A078800A701A7
:1017E0008B1BA7178B138A117D218A15A71B8B17BB
:1017F000880EA7018B1BA7178B138A117D218A15D1
:10180000A71B8B172C308800A7018B1BA7178B13E6
:101810008A117D218A15A71B8B17880EA7018B1BA8
:10182000A7178B138A117D218A15A71B8B173030C0
:1018300028078800A7018B1BA7178B138A117D210E
:101840008A15A71B8B17880EA7018B1BA7178B1355
:101850008A117D218A15A71B8B17EE01EF014730F6
:10186000840083136E0884076F088A11BE208A15CE
:101870008000003803193F2CEF0AEE0A2F2CA70135
:101880008B1BA7178B139E308316AD00AF0147301B
:10189000AE008A118312A0218A15A71B8B1708009E
:1018A000EE01EF014730840083136E0884076F0850
:1018B0008A11C7208A15800000380319622CEF0AAC
:1018C000EE0A522CA7018B1BA7178B13D43083165B
:1018D000AD00AF014730AE008A118312A0218A15F6
:1018E000A71B8B170910D9308800A7018B1BA717DE
:1018F0008B138A117D218A15A71B8B17880EA701D0
:101900008B1BA7178B138A117D218A15A71B8B1799
:10191000091430302E078800A7018B1BA7178B13E3
:101920008A117D218A15A71B8B17880EA7018B1B97
:10193000A7178B138A117D218A15A71B8B173030AF
:101940002C078800A7018B1BA7178B138A117D21F9
:101950008A15A71B8B17880EA7018B1BA7178B1344
:101960008A117D218A15A71B8B172C308800A701AF
:101970008B1BA7178B138A117D218A15A71B8B1729
:10198000880EA7018B1BA7178B138A117D218A153F
:10199000A71B8B1730302A078800A7018B1BA717BE
:1019A0008B138A117D218A15A71B8B17880EA7011F
:1019B0008B1BA7178B138A117D218A15A71B8B17E9
:1019C000303028078800A7018B1BA7178B138A11BB
:1019D0007D218A15A71B8B17880EA7018B1BA717C4
:1019E0008B138A117D218A15A71B8B17EE01EF013E
:1019F0004730840083136E0884076F088A11D02053
:101A00008A15800000380319082DEF0AEE0AF82C19
:101A1000A7018B1BA7178B13DE308316AD00AF0118
:101A20004730AE008A118312A0218A15A71B8B179D
:101A300008000B13A7018B1BA7178B138A11982182
:101A40008A15A71B8B17E601E70147308400831333
:101A50006608840767088A11D9208A158000003833
:101A60000319352DE70AE60A252DA7018B1BA717B9
:101A70008B13C0308316AD00AF014730AE008A1122
:101A80008312A0218A15A71B8B17E601E7014730B7
:101A9000840083136608840767088A11EE208A157C
:101AA000800000380319572DE70AE60A472DA701E1
:101AB0008B1BA7178B1394308316AD00AF014730F3
:101AC000AE008A118312A0218A15A71B8B17E6018D
:101AD000E7014730840083136608840767088A118A
:101AE000FF208A15800000380319792DE70AE60ADD
:101AF000692DA7018B1BA7178B13D4308316AD005C
:101B0000AF014730AE008A118312A0218A15A71BAE
:101B10008B17A7018B1BA7178B138A11DC218A1542
:101B2000A71B8B177808BD0030303D078800A70140
:101B30008B1BA7178B138A117D218A15A71B8B1767
:101B4000880EA7018B1BA7178B138A117D218A157D
:101B5000A71B8B17A7018B1BA7178B138A11DC21DF
:101B60008A15A71B8B177808BE0030303E07880007
:101B7000A7018B1BA7178B138A117D218A15A71B21
:101B80008B17880EA7018B1BA7178B138A117D213A
:101B90008A15A71B8B17A7018B1BA7178B138A11FD
:101BA000DC218A15A71B8B177808BF0030303F0750
:101BB0008800A7018B1BA7178B138A117D218A151B
:101BC000A71B8B17880EA7018B1BA7178B138A11D6
:101BD0007D218A15A71B8B17A7018B1BA7178B13BA
:101BE0008A11DC218A15A71B8B177808C0003030BA
:101BF00040078800A7018B1BA7178B138A117D2133
:101C00008A15A71B8B17880EA7018B1BA7178B1391
:101C10008A117D218A15A71B8B17B701B6010B17F7
:101C20008A150A12CC2FA7018B1BA7178B138A11B9
:101C300098218A15A71B8B17E601E701473084001E
:101C400083136608840767088A1106218A158000B5
:101C5000003803192E2EE70AE60A1E2EA7018B1B59
:101C6000A7178B13C0308316AD00AF014730AE000D
:101C70008A118312A0218A15A71B8B17E601E701A1
:101C80004730840083136608840767088A111D2182
:101C90008A15800000380319502EE70AE60A402E04
:101CA000A7018B1BA7178B1394308316AD00AF01D0
:101CB0004730AE008A118312A0218A15A71B8B170B
:101CC000E601E7014730840083136608840767084C
:101CD0008A11FF208A15800000380319722EE70A46
:101CE000E60A622EA7018B1BA7178B13D43083162D
:101CF000AD00AF014730AE008A118312A0218A15D2
:101D0000A71B8B17A7018B1BA7178B138A11DC212D
:101D10008A15A71B8B17FA017808B2007A08B3005E
:101D20000910D7308800A7018B1BA7178B138A11C6
:101D30007D218A15A71B8B17880EA7018B1BA71760
:101D40008B138A117D218A15A71B8B17091430303C
:101D500032078800A7018B1BA7178B138A117D21DF
:101D60008A15A71B8B17880EA7018B1BA7178B1330
:101D70008A117D218A15A71B8B170430E600A70165
:101D80008B1BA7178B13C8308316B0008A118312E0
:101D9000C7218A15A71B8B17E60BBF2E3208023C02
:101DA000031DD92EB308031DD92EB3010A30B2008A
:101DB000E32E3208033C031DE32EB308031DE32E7C
:101DC000B3013C30B200A7018B1BA7178B138A11FC
:101DD00098218A15A71B8B17E601E701473084007D
:101DE00083136608840767088A1134218A158000E6
:101DF00000380319FE2EE70AE60AEE2EA7018B1B18
:101E0000A7178B1394308316AD00AF014730AE0097
:101E10008A118312A0218A15A71B8B170830E600B0
:101E2000A7018B1BA7178B13FA308316B0008A11FA
:101E30008312C7218A15A71B8B17E60B102FB7013A
:101E4000B6018A150A12CC2F840183131F30830533
:101E5000B3010A30B200B501B401B701B601B9014E
:101E6000B801BB01BA01BC01BD01BE01BF01C00187
:101E7000C101C201C301C401C501C6018316031714
:101E80000908C039890003131F129F12003003177D
:101E90008800831287018801890131300313E10032
:101EA000E200E300E400E5000F3083168500FF3018
:101EB000860088018901F0308700831287018A112A
:101EC000992D8A158A11052E8A15831601178312FA
:101ED0000B168B1783160C1483120B178B15FF3000
:101EE00083169500FE3096008A118312162E8A15ED
:101EF0008A1119248A15A7018B1BA7178B138A1126
:101F000081228A15A71B8B173908BB003808BA0035
:101F10008A11222E8A153608F7003708FA007A0847
:101F2000031D962F013077020319AC2F7A08031D89
:101F30009D2F023077020319BB2F7A08031DA42FAF
:101F4000033077020319C82F7A08031DAB2F043022
:101F500077020319CA2FCC2FA7018B1BA7178B134E
:101F60008A1198218A15A71B8B170A168A11002837
:101F70000A128A15CC2FA7018B1BA7178B138A1166
:101F800098218A15A71B8B170A1600280A12CC2F36
:0C1F9000192DCC2F132ECC2F7B2F6300BB
:10200000E701E601E901E801ED01EC01EB01EA017C
:10201000C601C608031D0C2D0B139F121F129F1122
:102020001F11B501B401B508031D0B2D3408033C85
:10203000031C0B2D9F149F181B28FA011E08EF008C
:10204000EE0183161E0883126E07E6006F08E70094
:102050000318E70A04309F07EE0187110714861C56
:1020600040280730EE00A7018B1BA7178B13C83041
:102070008316B0000A128312C7210A16A71B8B17FA
:10208000061D51280430EE00A7018B1BA7178B13E8
:10209000C8308316B0000A128312C7210A16A71B84
:1020A0008B17861D62280130EE00A7018B1BA71736
:1020B0008B13C8308316B0000A128312C7210A1688
:1020C000A71B8B17061E73281330EE00A7018B1B6E
:1020D000A7178B13C8308316B0000A128312C721CA
:1020E0000A16A71B8B1787140710861C8628083032
:1020F000EE00A7018B1BA7178B13C8308316B00007
:102100000A128312C7210A16A71B8B17061D9728D0
:102110000530EE00A7018B1BA7178B13C830831661
:10212000B0000A128312C7210A16A71B8B17861D3F
:10213000A8280230EE00A7018B1BA7178B13C8300D
:102140008316B0000A128312C7210A16A71B8B1729
:10215000061EB828EE01A7018B1BA7178B13C830EA
:102160008316B0000A128312C7210A16A71B8B1709
:1021700007158710861CCB280930EE00A7018B1BA2
:10218000A7178B13C8308316B0000A128312C72119
:102190000A16A71B8B17061DDC280630EE00A701C8
:1021A0008B1BA7178B13C8308316B0000A1283123B
:1021B000C7210A16A71B8B17861DED280330EE00DA
:1021C000A7018B1BA7178B13C8308316B0000A1208
:1021D0008312C7210A16A71B8B17061EFE280D3077
:1021E000EE00A7018B1BA7178B13C8308316B00016
:1021F0000A128312C7210A16A71B8B17871507110E
:10220000861C1129CD30EE00A7018B1BA7178B135D
:10221000C8308316B0000A128312C7210A16A71B02
:102220008B17061D2229FA30EE00A7018B1BA7177A
:102230008B13C8308316B0000A128312C7210A1606
:10224000A71B8B17861D3329FD30EE00A7018B1BC2
:10225000A7178B13C8308316B0000A128312C72148
:102260000A16A71B8B17061E4429FB30EE00A70198
:102270008B1BA7178B13C8308316B0000A1283126A
:10228000C7210A16A71B8B176E08F8007808C6002E
:10229000B408031D902AB508031D902A6708EF00B3
:1022A0006608EE000A126B260A16F501F4012030CA
:1022B000F3008230F2007A08FE007908FD00780809
:1022C000FC007708FB000A1288260A167708EE0041
:1022D0007808EF007908F0007A08F100F50070083E
:1022E000F4006F08F3006E08F200FE01C030FD003C
:1022F0007F30FC008830FB000A120E270A16770890
:10230000EE007808EF007908F0007A08F100F50097
:102310007008F4006F08F3006E08F200FE01FD0182
:102320007A30FC008830FB000A1288260A167A08E8
:10233000ED007908EC007808EB007708EA00B101BD
:102340002030B000F1014030F0001C30EF008B3045
:10235000EE006D08F5006C08F4006B08F3006A08E5
:10236000F2000A128A1500200A168A11031CD929C4
:1023700083146D08F1006C08F0006B08EF006A0828
:10238000EE00F5011830F4001C30F3008B30F20041
:102390000A128A153F200A168A117A08ED00790878
:1023A000EC007808EB007708EA00B1012B30B000B0
:1023B000172A6D08F1006C08F0006B08EF006A083E
:1023C000EE00F5011030F4001C30F3008B30F20009
:1023D0000A128A1500200A168A11031C132A831474
:1023E0006D08F1006C08F0006B08EF006A08EE0061
:1023F000F5011830F4001C30F3008B30F2000A12A3
:102400008A153F200A168A117A08ED007908EC0037
:102410007808EB007708EA006B08803AEB00B1011E
:102420002D30B000172AED01EC01EB01EA016D0837
:10243000F1006C08F0006B08EF006A08EE000A1269
:102440008A1594210A168A117908E9007808E800AB
:102450006908F1006808F0000330F300E830F2008A
:102460000A128A15B3210A168A117908AF00780872
:10247000AE006908F1006808F0000330F300E830AE
:10248000F2000A128A15B3210A168A117708EE00A3
:102490007A08EF00F1006E08F000F3016430F200FA
:1024A0000A128A15B3210A168A117908AD00780834
:1024B000AC006908F1006808F000F3016430F20034
:1024C0000A128A15B3210A168A117708EE007A08D3
:1024D000EF00F1006E08F000F3010A30F2000A127A
:1024E0008A15B3210A168A117908AB007808AA0068
:1024F0006908F1006808F000F3010A30F2000A12DE
:102500008A15B3210A168A117708A8007A08A9004B
:10251000E701E6010A128A15D8210A168A11072D49
:10252000340B5E2BB508031D5E2B6708EF006608B1
:10253000EE000A126B260A16F501F401F3017F3052
:10254000F2007A08FE007908FD007808FC007708A0
:10255000FB000A1288260A167708EE007808EF00BA
:102560007908F0007A08F100F5007008F4006F08AF
:10257000F3006E08F200FE01C030FD007F30FC0069
:102580008830FB000A120E270A167708EE0078083A
:10259000EF007908F0007A08F100F5007008F40007
:1025A0006F08F3006E08F200FE01FD017A30FC00B6
:1025B0008830FB000A1288260A167A08ED0079088E
:1025C000EC007808EB007708EA006D08F1006C0871
:1025D000F0006B08EF006A08EE000A128A159421D9
:1025E0000A168A117908E9007808E8006908F100FC
:1025F0006808F0000330F300E830F2000A128A1590
:10260000B3210A168A117908AF007808AE0069086C
:10261000F1006808F0000330F300E830F2000A121D
:102620008A15B3210A168A117708EE007A08EF009E
:10263000F1006E08F000F3016430F2000A128A150E
:10264000B3210A168A117908AD007808AC00690830
:10265000F1006808F000F3016430F2000A128A15F4
:10266000B3210A168A117708EE007A08EF00F1000C
:102670006E08F000F3010A30F2000A128A15B32145
:102680000A168A117908AB007808AA006908F100D7
:102690006808F000F3010A30F2000A128A15B3212B
:1026A0000A168A117708A8007A08A900E701E6014E
:1026B0000A128A15B6220A168A11072D3408023C1E
:1026C000031D372CB508031D372C36306602F70082
:1026D0006708FA000030031C0130FA027708EE00A8
:1026E0007A08EF000A126B260A16F5018030F40012
:1026F000F3018730F2007A08FE007908FD007808BF
:10270000FC007708FB000A1288260A167708EE00FC
:102710007808EF007908F0007A08F100F5007008F9
:10272000F4006F08F3006E08F200FE01FD01723044
:10273000FC008830FB000A120E270A167708EE000C
:102740007808EF007908F0007A08F100F5007008C9
:10275000F4006F08F3006E08F200FE01FD01203066
:10276000FC008230FB000A1288260A167A08ED0067
:102770007908EC007808EB007708EA006D08F100B2
:102780006C08F0006B08EF006A08EE000A128A1568
:1027900094210A168A117908E9007808E800690886
:1027A000F1006808F0000330F300E830F2000A128C
:1027B0008A15B3210A168A117908AF007808AE008D
:1027C0006908F1006808F0000330F300E830F20017
:1027D0000A128A15B3210A168A117708EE007A08C0
:1027E000EF00F1006E08F000F3016430F2000A120D
:1027F0008A15B3210A168A117908AD007808AC0051
:102800006908F1006808F000F3016430F2000A1270
:102810008A15B3210A168A117708EE007A08EF00AC
:10282000F1006E08F000F3010A30F2000A128A1576
:10283000B3210A168A117908AB007808AA00690842
:10284000F1006808F000F3010A30F2000A128A155C
:10285000B3210A168A117708A8007A08A900E701AF
:10286000E6010A128A1587230A168A11072D3408F1
:10287000033C031D072DB508031D072D6708EF0056
:102880006608EE000A126B260A16F501F4014030C4
:10289000F3008030F2007A08FE007908FD00780825
:1028A000FC007708FB000A1288260A167708EE005B
:1028B0007808EF007908F0007A08F100F500700858
:1028C000F4006F08F3006E08F200FE01C030FD0056
:1028D0007F30FC008830FB000A120E270A167708AA
:1028E000EE007808EF007908F0007A08F100F500B2
:1028F0007008F4006F08F3006E08F200FE01FD019D
:102900007A30FC008830FB000A1288260A167A0802
:10291000ED007908EC007808EB007708EA006D0814
:10292000F1006C08F0006B08EF006A08EE000A1274
:102930008A1594210A168A117908E9007808E800B6
:102940006908F1006808F0000330F300E830F20095
:102950000A128A15B3210A168A117908AF0078087D
:10296000AE006908F1006808F0000330F300E830B9
:10297000F2000A128A15B3210A168A117708EE00AE
:102980007A08EF00F1006E08F000F3016430F20005
:102990000A128A15B3210A168A117908AD0078083F
:1029A000AC006908F1006808F000F3016430F2003F
:1029B0000A128A15B3210A168A117708EE007A08DE
:1029C000EF00F1006E08F000F3010A30F2000A1285
:1029D0008A15B3210A168A117908AB007808AA0073
:1029E0006908F1006808F000F3010A30F2000A12E9
:1029F0008A15B3210A168A117708A8007A08A90057
:102A0000E701E6010A128A1550240A168A11B40A4F
:102A10000319B50A13280928C6010B17B701B60117
:062A20008A150A12CC2FFA
:103000008B13E701E601E901E801ED01EC01EB01B9
:10301000EA010C30C502B501B401B508031DD02B7F
:103020003408033C031CD02B831603178C13831224
:103030000313450803178D0083160C140C181E2863
:10304000FA0183120C080313E700E601C50A4508DC
:1030500003178D0083160C140C182C2883120C08EF
:103060000313E6070318E70AC50AB408031D6D2910
:10307000B508031D6D296708EF006608EE000A1207
:103080008A116B260A168A15F501F4012030F30027
:103090008230F2007A08FE007908FD007808FC0012
:1030A0007708FB000A128A1188260A168A15770803
:1030B000EE007808EF007908F0007A08F100F500DA
:1030C0007008F4006F08F3006E08F200FE01C030D3
:1030D000FD007F30FC008830FB000A128A110E27A9
:1030E0000A168A157708EE007808EF007908F000D4
:1030F0007A08F100F5007008F4006F08F3006E081C
:10310000F200FE01FD017A30FC008830FB000A125B
:103110008A1188260A168A157A08ED007908EC00CB
:103120007808EB007708EA00B1012030B000F10127
:103130004030F0001C30EF008B30EE006D08F500E1
:103140006C08F4006B08F3006A08F2000A12002011
:103150000A16031CCA2883146D08F1006C08F000DD
:103160006B08EF006A08EE00F5011830F4001C301F
:10317000F3008B30F2000A123F200A167A08ED00A5
:103180007908EC007808EB007708EA00B1012B30F1
:10319000B00004296D08F1006C08F0006B08EF0026
:1031A0006A08EE00F5011030F4001C30F3008B309B
:1031B000F2000A1200200A16031C002983146D086D
:1031C000F1006C08F0006B08EF006A08EE00F501F2
:1031D0001830F4001C30F3008B30F2000A123F204C
:1031E0000A167A08ED007908EC007808EB007708F9
:1031F000EA006B08803AEB00B1012D30B0000429E1
:10320000ED01EC01EB01EA016D08F1006C08F00042
:103210006B08EF006A08EE000A1294210A1679087A
:10322000E9007808E8006908F1006808F000033058
:10323000F300E830F2000A12B3210A167908AF0051
:103240007808AE006908F1006808F0000330F30068
:10325000E830F2000A12B3210A167708EE007A0865
:10326000EF00F1006E08F000F3016430F2000A1282
:10327000B3210A167908AD007808AC006908F1009E
:103280006808F000F3016430F2000A12B3210A1654
:103290007708EE007A08EF00F1006E08F000F30105
:1032A0000A30F2000A12B3210A167908AB00780836
:1032B000AA006908F1006808F000F3010A30F20082
:1032C0000A12B3210A167708A8007A08A900E701B4
:1032D000E6010A12D8210A16CC2B340B332AB50882
:1032E000031D332A6708EF006608EE000A128A11F0
:1032F0006B260A168A15F501F401F3017F30F200FE
:103300007A08FE007908FD007808FC007708FB00C9
:103310000A128A1188260A168A157708EE0078089C
:10332000EF007908F0007A08F100F5007008F40069
:103330006F08F3006E08F200FE01C030FD007F3020
:10334000FC008830FB000A128A110E270A168A1523
:103350007708EE007808EF007908F0007A08F100AD
:10336000F5007008F4006F08F3006E08F200FE012B
:10337000FD017A30FC008830FB000A128A11882691
:103380000A168A157A08ED007908EC007808EB0037
:103390007708EA006D08F1006C08F0006B08EF0098
:1033A0006A08EE000A1294210A167908E9007808E2
:1033B000E8006908F1006808F0000330F300E83025
:1033C000F2000A12B3210A167908AF007808AE009D
:1033D0006908F1006808F0000330F300E830F200FB
:1033E0000A12B3210A167708EE007A08EF00F100FE
:1033F0006E08F000F3016430F2000A12B3210A16DD
:103400007908AD007808AC006908F1006808F000A0
:10341000F3016430F2000A12B3210A167708EE00B5
:103420007A08EF00F1006E08F000F3010A30F200B4
:103430000A12B3210A167908AB007808AA006908B5
:10344000F1006808F000F3010A30F2000A12B3211B
:103450000A167708A8007A08A900E701E6010A120F
:10346000B6220A16CC2B3408023C031D042BB508E7
:10347000031D042B36306602F7006708FA0000309F
:10348000031C0130FA027708EE007A08EF000A12F6
:103490008A116B260A168A15F5018030F400F301B3
:1034A0008730F2007A08FE007908FD007808FC00F9
:1034B0007708FB000A128A1188260A168A157708EF
:1034C000EE007808EF007908F0007A08F100F500C6
:1034D0007008F4006F08F3006E08F200FE01FD01B1
:1034E0007230FC008830FB000A128A110E270A167F
:1034F0008A157708EE007808EF007908F0007A085E
:10350000F100F5007008F4006F08F3006E08F20097
:10351000FE01FD012030FC008230FB000A128A11FE
:1035200088260A168A157A08ED007908EC007808D2
:10353000EB007708EA006D08F1006C08F0006B08FA
:10354000EF006A08EE000A1294210A167908E900D1
:103550007808E8006908F1006808F0000330F3001B
:10356000E830F2000A12B3210A167908AF00780891
:10357000AE006908F1006808F0000330F300E8309D
:10358000F2000A12B3210A167708EE007A08EF005B
:10359000F1006E08F000F3016430F2000A12B3216A
:1035A0000A167908AD007808AC006908F1006808CF
:1035B000F000F3016430F2000A12B3210A16770812
:1035C000EE007A08EF00F1006E08F000F3010A3017
:1035D000F2000A12B3210A167908AB007808AA0093
:1035E0006908F1006808F000F3010A30F2000A12DD
:1035F000B3210A167708A8007A08A900E701E601B6
:103600000A1287230A16CC2B3408033C031DCC2B4B
:10361000B508031DCC2B6708EF006608EE000A1200
:103620008A116B260A168A15F501F4014030F30061
:103630008030F2007A08FE007908FD007808FC006E
:103640007708FB000A128A1188260A168A1577085D
:10365000EE007808EF007908F0007A08F100F50034
:103660007008F4006F08F3006E08F200FE01C0302D
:10367000FD007F30FC008830FB000A128A110E2703
:103680000A168A157708EE007808EF007908F0002E
:103690007A08F100F5007008F4006F08F3006E0876
:1036A000F200FE01FD017A30FC008830FB000A12B6
:1036B0008A1188260A168A157A08ED007908EC0026
:1036C0007808EB007708EA006D08F1006C08F0005C
:1036D0006B08EF006A08EE000A1294210A167908B6
:1036E000E9007808E8006908F1006808F000033094
:1036F000F300E830F2000A12B3210A167908AF008D
:103700007808AE006908F1006808F0000330F300A3
:10371000E830F2000A12B3210A167708EE007A08A0
:10372000EF00F1006E08F000F3016430F2000A12BD
:10373000B3210A167908AD007808AC006908F100D9
:103740006808F000F3016430F2000A12B3210A168F
:103750007708EE007A08EF00F1006E08F000F30140
:103760000A30F2000A12B3210A167908AB00780871
:10377000AA006908F1006808F000F3010A30F200BD
:103780000A12B3210A167708A8007A08A900E701EF
:10379000E6010A1250240A16B40A0319B50A0D28C4
:1037A0000910CF308800A7018B1BA7178B130A12B3
:1037B0008A117D210A168A15A71B8B17880EA7016F
:1037C0008B1BA7178B130A128A117D210A168A15E3
:1037D000A71B8B170914B501B401B508031D3F2CB5
:1037E0003408033C031C3F2C831603178C138312ED
:1037F0000313450803178D0083160C140C18FE2BB9
:10380000303083120C0703138800A7018B1BA71706
:103810008B130A128A117D210A168A15A71B8B1792
:10382000880EA7018B1BA7178B130A128A117D2103
:103830000A168A15A71B8B17340B3A2CB508031DE3
:103840003A2C3A308800A7018B1BA7178B130A125A
:103850008A117D210A168A15A71B8B17880EA701CE
:103860008B1BA7178B130A128A117D210A168A1542
:10387000A71B8B17C50AB40A0319B50AED2B8B17C2
:103880005030EE00A7018B1BA7178B13FA3083165D
:10389000B0000A128A118312C7210A168A15A71BC3
:1038A0008B17EE0B422CB701B601A7018B1BA71794
:1038B0008B130A128A1198210A168A15A71B8B17D7
:0638C0008A150A12CC2F4C
:04400E00E42FFF3F5D
:00000001FF
;PIC16F887
;CRC=42E8  CREATED="27-mai-15 18:56"
